:100000003DC0D3C256C055C054C053C052C051C0E9
:1000100050C04FC04EC0C7C04CC04BC04AC049C002
:1000200048C047C046C004030904140341006E00E1
:10003000670065006C0069006E00750078001203AF
:1000400042006C0075006500760065007200790062
:1000500012011001FF000008C016DC0500010102BA
:1000600000010902190001010080190904000001C2
:1000700000000000070581030800640011241FBE72
:10008000CFE5D4E0DEBFCDBF10E0A0E6B0E0E0E514
:10009000F8E002C005900D92A039B107D9F710E041
:1000A000A0E9B0E001C01D92AC3EB107E1F747D036
:1000B000CDC3A6CFFC0181818093A700808180768B
:1000C000803411F08FEF08958181813019F480938D
:1000D000A80002C01092A80087EA90E09093D10097
:1000E0008093D00082E00895FC01E0818091B4000B
:1000F000E81749F0E093B4005D9BFECFECB95D9B3F
:10010000FECF8DE08CB981E00895E8E1EAB9579A15
:10011000E4E0220F331F441F551FEA95D1F766D341
:10012000215030404040504029B9232F342F452FD3
:10013000552720BD08955D9BFECF8CB908952EE014
:1001400088E190E00FB6F894A89581BD0FBE21BD5F
:10015000DAD08B9A20E030E040E45FE1A895CA0154
:100160000197F1F72F5F3F4F2A3F3105B9F760E064
:1001700074E284EF90E020E036E940E050E0C5DF33
:100180008B987894A895CCD0809190008130D1F74D
:100190008091C10084FF04C08CEA90E068E0CBD17C
:1001A00010929000EFCF1F920F920FB60F92112472
:1001B0002F933F934F935F936F937F938F939F936F
:1001C000AF93BF93EF93FF93E0919100F091920072
:1001D0008CB1ED56FF4F8083E0919100F091920039
:1001E000ED56FF4FE081EF3E09F442C0EE3F09F4C7
:1001F00062C0ED3009F06DC0809191009091920045
:10020000089740F480E690E063E970E046E050E053
:100210000FD322C087E690E063E970E04AE050E047
:1002200007D3009739F482E08093AD008FE080938C
:10023000B4001AC082E790E063E970E04DE050E05E
:10024000F7D2009711F483E00DC080E890E063E9F5
:1002500070E04CE050E0ECD2009719F4109290005E
:1002600003C084E08093AD0081E0809390002CC0B7
:10027000809193008093AC0081E08093AD0022E0F8
:1002800030E00AC0F901E455FF4FD901AE56BF4F27
:100290008C9180832F5F3F4F8091910090919200CD
:1002A0008217930778F7109292001092910081E0E4
:1002B0008093900017C08091B4005D9BFECF8CB9F5
:1002C0005D9BFECF8DE08CB9109292001092910050
:1002D00009C08091910090919200019690939200B4
:1002E00080939100FF91EF91BF91AF919F918F917A
:1002F0007F916F915F914F913F912F910F900FBE22
:100300000F901F90189585B7826085BF8BB780646A
:100310008BBF8BE48093C2008AE58093C10008956F
:100320001F93CF93DF936091D200635067FDA8C005
:100330008091CF00CCE0D0E0C81BD109CA52DF4F7A
:100340008091CE008D3209F089C0683009F096C0E6
:1003500083EC8093B6008AE580938D001092B500FF
:100360008881807639F0CE01A5DE282F8F3F09F4F1
:1003700064C06AC09A811092BF008981882321F4E9
:100380001092C00022E052C0853019F49093D3003F
:100390004CC08630B1F58B81813019F480E590E056
:1003A00025C0823041F482E690E09093D1008093A2
:1003B000D00029E122C08330F9F48A81882341F4F6
:1003C00086E290E09093D1008093D00024E015C0A5
:1003D000813041F48AE290E09093D1008093D00084
:1003E00024E10BC0823041F48EE390E09093D10081
:1003F0008093D00022E101C020E080E48093B5002A
:1004000023C0883021F421E085ED90E011C08930CF
:1004100019F49093D50009C08A3011F421E006C088
:100420008B3019F48BE48093C20020E08FEB90E0D6
:100430009093D1008093D00007C0888187FD2E81E2
:1004400080E88093B50006C08F81882319F48E81DF
:10045000821708F0822F80938E0010C08091B50023
:1004600087FF0CC0CE0140DE8F3F21F48EE18093E8
:100470008D0004C0882311F010928E001092D200DB
:1004800080918D0084FF49C080918E008F3F09F4D8
:1004900044C0182F893008F018E0811B80938E002B
:1004A0008091B60098E889278093B600112341F126
:1004B0002091D0003091D1008091B50086FF0DC011
:1004C000A7EBB0E080E090E0F901E80FF91FE491BC
:1004D000ED9301961817C1F708C0912FD901E7EBEA
:1004E000F0E08D9181939150E1F71150812F90E0D0
:1004F0001F5F0196820F931F9093D1008093D000CD
:1005000087EB90E0612F4DD0612F6C5F6C3019F05C
:100510008FEF80938E0060938D0094E180B38C7098
:1005200031F49150D9F71092D3001092CD00DF91A1
:10053000CF911F9108951F93DC01162F8091C10068
:1005400084FF07C08091C20098E889278093C20089
:1005500003C08AE58093C100912FE3ECF0E08D9118
:1005600081939150E1F783EC90E0612F1AD01C5FEA
:100570001093C1001F910895A82FB92F80E090E03B
:1005800041E050EA609530E009C02D9182279795AF
:10059000879510F084279527305EC8F36F5FA8F326
:1005A0000895EADF8D939D930895CF93CFB7CF93AE
:1005B000DF93C395839BE9F7839B0BC0839B09C0A3
:1005C000839B07C0839B05C0839B03C0839B01C0A3
:1005D0008BC06F93C091CF00DD27CA52DF4F2F939E
:1005E00065E5839B03C02F916F91E6CF0F931F9317
:1005F0004F9320E040E15F9300B30C7003FB27F9B9
:100600003F9350E03BE039C01C7040642F77012FCE
:100610005F5F1EC0406810B31C702F7752501FC020
:10062000406400B32F770C70D1F15F5F00C023C02E
:10063000406210B32F771C7091F15F5F00C025C03E
:100640000C701027515012F45D5F00001150279577
:100650002C3F10B3C8F61C700127015027952C3F82
:10066000C8F64227499300B30C7010274F731150FE
:1006700027952C3FA8F64695469510B31C7079F047
:100680000127015027952C3F98F66B5A60F33150A3
:1006900000B3B0F600C010E41ABF002719C03B50E9
:1006A0003195C31BD04010E41ABF0881033C09F107
:1006B0000B34F9F02091CD001981110F1213EDCFF9
:1006C0004A81441F093651F10D3211F0013E29F7DC
:1006D0000093D4003F915F914F911F910F912F9103
:1006E0006F91CAB7C6FD65CFDF91CF91CFBFCF91D4
:1006F00018952091D400222369F31091D200112380
:1007000091F5343092F13093D2002093CE001091C5
:10071000CF003BE0311B3093CF0027C00091D200C7
:1007200001300CF50AE54F7049F430918D0034FD2D
:100730001DC000938D00C6EBD0E01CC03091C100FD
:1007400034FD14C00093C100C2ECD0E013C00527F3
:1007500010E000C0000002BB1AC0052710E0221FF5
:100760001DC010E021C04AE502C032ED432FC4E1B4
:10077000D0E032E011B31C60939A02B311BB5CE08D
:1007800020E865E320FF052702BB279517951C3F4E
:10079000F0F66695B8F7B1F720FF052702BB27955D
:1007A00017951C3FD0F62795179517FF05270000D2
:1007B0001C3F02BBB0F629913A9519F7037F1091BF
:1007C000D300110FC651D04002BB11F01093CD00E1
:1007D00010E41ABF086011B3137F402F437F54E029
:1007E0005A95F1F702BB11BB42BB74CFA1E21A2E9E
:1007F000AA1BBB1BFD010DC0AA1FBB1FEE1FFF1FC5
:10080000A217B307E407F50720F0A21BB30BE40B14
:10081000F50B661F771F881F991F1A9469F760955B
:100820007095809590959B01AC01BD01CF01089515
:10083000FB01DC014150504030F08D910190801956
:1008400019F40020B9F7881B990B0895F894FFCF8D
:100850002B5245414459002B434F4E4E454354457E
:1008600044002B444953434F4E4E454354454400A6
:100870002B4144564552544953494E47005AFF00B4
:00000001FF
