:1000000012C02CC02BC02AC029C028C027C026C0BF
:1000100025C024C023C05DC121C020C01FC01EC098
:100020001DC01CC01BC011241FBECFE5D4E0DEBF25
:10003000CDBF10E0A0E6B0E0E0E3F4E002C0059040
:100040000D92AC36B107D9F710E0ACE6B0E001C0D4
:100050001D92AE3CB107E1F718D0E8C1D1CFE8E17D
:10006000EAB9579AE4E0220F331F441F551FEA955F
:10007000D1F7ACD12150304040405040BB27A52F94
:10008000942F832F80BD29B90895FF920F931F935A
:10009000CF93DF9381E087BB14BA88EF81BB18BA96
:1000A00060E074E284EF90E020E036E940E050E068
:1000B000D6DF789461E070E0A8E0FA2EC0E9D1E0E4
:1000C0001EEE0FEE5DE0A0E4BCE970937200609359
:1000D0007100F0926B006EC080916B00880F880FEA
:1000E000880F82BBCE010197F1F780916B00885099
:1000F0008295807F8093CD00989910C08091710087
:10010000909172002091CD002C5FFC01E957FF4FC8
:10011000208301969093720080937100999910C08A
:1001200080917100909172002091CD002D5FFC01B3
:10013000E957FF4F208301969093720080937100DE
:100140009A9910C080917100909172002091CD0019
:100150002E5FFC01E957FF4F2083019690937200B8
:10016000809371009B9910C08091710090917200F2
:100170002091CD002F5FFC01E957FF4F20830196AE
:1001800090937200809371009C990FC080917100D0
:10019000909172002091CD00FC01E957FF4F208320
:1001A0000196909372008093710080916B008F5F35
:1001B00080936B0080916B00863108F48DCF809125
:1001C000710090917200059740F0709372006093F7
:1001D00071007093700060936F0080916F00909138
:1001E0007000892B31F080916F00909170000B9717
:1001F00038F08091710090917200029708F461C00C
:10020000829B02C020E001C024E09D9B02C040E030
:1002100001C042E0B19B02C030E001C038E086B3CB
:1002200090E0969587959695879586279727817074
:10023000280F240F230F2093870020E030E009C00F
:10024000F901E957FF4FE0815D9BFECFECB92F5FCD
:100250003F4F80917100909172002817390780F309
:10026000809171009091720004C05D9BFECF1CB91B
:10027000019683309105CCF35D9BFECF0CB95D9B5D
:10028000FECF5CB980917100909172000197A9F442
:1002900080916F00909170000A9750F480916F00E8
:1002A0009091700001969093700080936F0009C048
:1002B0001092700010926F0004C0709370006093F1
:1002C0006F00CD010197F1F700CF5D9BFECF8CB998
:1002D00008951F920F920FB60F9211242F933F9300
:1002E0004F935F936F937F938F939F93AF93BF933E
:1002F000EF93FF93E0916D00F0916E008CB1ED589B
:10030000FF4F8083E0916D00F0916E00ED58FF4F3C
:1003100080818D30D9F480E690E063E770E04AE0B8
:1003200050E076D0009799F588EE93E020E931E02F
:10033000F9013197F1F70197D9F75D9BFECF8EEF69
:100340008CB95D9BFECF8DE08CB921C0E0916D0032
:10035000F0916E00ED58FF4F8081882349F0E091C5
:100360006D00F0916E00ED58FF4F8081813049F4AF
:10037000E0916D00F0916E00ED58FF4F808188BBD9
:1003800006C080916D0090916E00439728F0109206
:100390006E0010926D0009C080916D0090916E000A
:1003A000019690936E0080936D00FF91EF91BF9145
:1003B000AF919F918F917F916F915F914F913F91FD
:1003C0002F910F900FBE0F901F901895A1E21A2E3B
:1003D000AA1BBB1BFD010DC0AA1FBB1FEE1FFF1FE9
:1003E000A217B307E407F50720F0A21BB30BE40B39
:1003F000F50B661F771F881F991F1A9469F7609580
:100400007095809590959B01AC01BD01CF01089539
:10041000FB01DC014150504030F08D91019080197A
:1004200019F40020B9F7881B990B0895F894FFCFB1
:0C0430002B434F4E4E45435445440008FA
:00000001FF
